{
  "_format": "hh3-artifact-1",
  "contractName": "PredictionMarket",
  "sourceName": "contracts/PredictionMarket.sol",
  "abi": [
    {
      "inputs": [
        {
          "internalType": "address",
          "name": "_oracleNode",
          "type": "address"
        }
      ],
      "stateMutability": "nonpayable",
      "type": "constructor"
    },
    {
      "anonymous": false,
      "inputs": [
        {
          "indexed": true,
          "internalType": "address",
          "name": "user",
          "type": "address"
        },
        {
          "indexed": false,
          "internalType": "string",
          "name": "fixtureId",
          "type": "string"
        },
        {
          "indexed": false,
          "internalType": "enum PredictionMarket.MatchOutcome",
          "name": "selection",
          "type": "uint8"
        },
        {
          "indexed": false,
          "internalType": "uint256",
          "name": "amount",
          "type": "uint256"
        }
      ],
      "name": "BetPlaced",
      "type": "event"
    },
    {
      "anonymous": false,
      "inputs": [
        {
          "indexed": false,
          "internalType": "string",
          "name": "fixtureId",
          "type": "string"
        }
      ],
      "name": "MarketCreated",
      "type": "event"
    },
    {
      "anonymous": false,
      "inputs": [
        {
          "indexed": false,
          "internalType": "string",
          "name": "fixtureId",
          "type": "string"
        },
        {
          "indexed": false,
          "internalType": "enum PredictionMarket.MatchOutcome",
          "name": "winningOutcome",
          "type": "uint8"
        }
      ],
      "name": "MarketResolved",
      "type": "event"
    },
    {
      "anonymous": false,
      "inputs": [
        {
          "indexed": true,
          "internalType": "address",
          "name": "user",
          "type": "address"
        },
        {
          "indexed": false,
          "internalType": "string",
          "name": "fixtureId",
          "type": "string"
        },
        {
          "indexed": false,
          "internalType": "uint256",
          "name": "amount",
          "type": "uint256"
        }
      ],
      "name": "WinningsClaimed",
      "type": "event"
    },
    {
      "inputs": [
        {
          "internalType": "string",
          "name": "",
          "type": "string"
        },
        {
          "internalType": "address",
          "name": "",
          "type": "address"
        }
      ],
      "name": "bets",
      "outputs": [
        {
          "internalType": "enum PredictionMarket.MatchOutcome",
          "name": "selection",
          "type": "uint8"
        },
        {
          "internalType": "uint256",
          "name": "amount",
          "type": "uint256"
        },
        {
          "internalType": "bool",
          "name": "claimed",
          "type": "bool"
        }
      ],
      "stateMutability": "view",
      "type": "function"
    },
    {
      "inputs": [
        {
          "internalType": "string",
          "name": "_fixtureId",
          "type": "string"
        }
      ],
      "name": "claimWinnings",
      "outputs": [],
      "stateMutability": "nonpayable",
      "type": "function"
    },
    {
      "inputs": [
        {
          "internalType": "string",
          "name": "_fixtureId",
          "type": "string"
        }
      ],
      "name": "createMarket",
      "outputs": [],
      "stateMutability": "nonpayable",
      "type": "function"
    },
    {
      "inputs": [
        {
          "internalType": "string",
          "name": "_fixtureId",
          "type": "string"
        }
      ],
      "name": "getMarket",
      "outputs": [
        {
          "internalType": "string",
          "name": "fixtureId",
          "type": "string"
        },
        {
          "internalType": "enum PredictionMarket.MatchOutcome",
          "name": "outcome",
          "type": "uint8"
        },
        {
          "internalType": "bool",
          "name": "isResolved",
          "type": "bool"
        },
        {
          "internalType": "uint256",
          "name": "totalHomePool",
          "type": "uint256"
        },
        {
          "internalType": "uint256",
          "name": "totalDrawPool",
          "type": "uint256"
        },
        {
          "internalType": "uint256",
          "name": "totalAwayPool",
          "type": "uint256"
        }
      ],
      "stateMutability": "view",
      "type": "function"
    },
    {
      "inputs": [
        {
          "internalType": "string",
          "name": "",
          "type": "string"
        }
      ],
      "name": "markets",
      "outputs": [
        {
          "internalType": "string",
          "name": "fixtureId",
          "type": "string"
        },
        {
          "internalType": "enum PredictionMarket.MatchOutcome",
          "name": "outcome",
          "type": "uint8"
        },
        {
          "internalType": "bool",
          "name": "isResolved",
          "type": "bool"
        },
        {
          "internalType": "uint256",
          "name": "totalHomePool",
          "type": "uint256"
        },
        {
          "internalType": "uint256",
          "name": "totalDrawPool",
          "type": "uint256"
        },
        {
          "internalType": "uint256",
          "name": "totalAwayPool",
          "type": "uint256"
        }
      ],
      "stateMutability": "view",
      "type": "function"
    },
    {
      "inputs": [],
      "name": "oracleNode",
      "outputs": [
        {
          "internalType": "address",
          "name": "",
          "type": "address"
        }
      ],
      "stateMutability": "view",
      "type": "function"
    },
    {
      "inputs": [],
      "name": "owner",
      "outputs": [
        {
          "internalType": "address",
          "name": "",
          "type": "address"
        }
      ],
      "stateMutability": "view",
      "type": "function"
    },
    {
      "inputs": [
        {
          "internalType": "string",
          "name": "_fixtureId",
          "type": "string"
        },
        {
          "internalType": "enum PredictionMarket.MatchOutcome",
          "name": "_selection",
          "type": "uint8"
        }
      ],
      "name": "placeBet",
      "outputs": [],
      "stateMutability": "payable",
      "type": "function"
    },
    {
      "inputs": [
        {
          "internalType": "string",
          "name": "_fixtureId",
          "type": "string"
        },
        {
          "internalType": "enum PredictionMarket.MatchOutcome",
          "name": "_winningOutcome",
          "type": "uint8"
        }
      ],
      "name": "resolveMarket",
      "outputs": [],
      "stateMutability": "nonpayable",
      "type": "function"
    }
  ],
  "bytecode": "0x60806040523480156200001157600080fd5b506040516200269738038062002697833981810160405281019062000037919062000129565b336000806101000a81548173ffffffffffffffffffffffffffffffffffffffff021916908373ffffffffffffffffffffffffffffffffffffffff16021790555080600160006101000a81548173ffffffffffffffffffffffffffffffffffffffff021916908373ffffffffffffffffffffffffffffffffffffffff160217905550506200015b565b600080fd5b600073ffffffffffffffffffffffffffffffffffffffff82169050919050565b6000620000f182620000c4565b9050919050565b6200010381620000e4565b81146200010f57600080fd5b50565b6000815190506200012381620000f8565b92915050565b600060208284031215620001425762000141620000bf565b5b6000620001528482850162000112565b91505092915050565b61252c806200016b6000396000f3fe6080604052600436106100865760003560e01c806380cc0dda1161005957806380cc0dda146101385780638da5cb5b14610163578063ac2a067d1461018e578063efbda661146101d0578063fdbcf1251461021257610086565b80631f6be0491461008b5780632a3ef71e146100ca57806354888f55146100e65780635aa8ff151461010f575b600080fd5b34801561009757600080fd5b506100b260048036038101906100ad9190611639565b61023b565b6040516100c193929190611740565b60405180910390f35b6100e460048036038101906100df919061179c565b6102a2565b005b3480156100f257600080fd5b5061010d600480360381019061010891906117f8565b610742565b005b34801561011b57600080fd5b506101366004803603810190610131919061179c565b6109bd565b005b34801561014457600080fd5b5061014d610c53565b60405161015a9190611850565b60405180910390f35b34801561016f57600080fd5b50610178610c79565b6040516101859190611850565b60405180910390f35b34801561019a57600080fd5b506101b560048036038101906101b091906117f8565b610c9d565b6040516101c7969594939291906118ea565b60405180910390f35b3480156101dc57600080fd5b506101f760048036038101906101f291906117f8565b610e0d565b604051610209969594939291906118ea565b60405180910390f35b34801561021e57600080fd5b50610239600480360381019061023491906117f8565b610f01565b005b600382805160208101820180518482526020830160208501208183528095505050505050602052806000526040600020600091509150508060000160009054906101000a900460ff16908060010154908060020160009054906101000a900460ff16905083565b600034116102e5576040517f08c379a00000000000000000000000000000000000000000000000000000000081526004016102dc9061199e565b60405180910390fd5b60006002836040516102f791906119fa565b9081526020016040518091039020600001805461031390611a40565b905011610355576040517f08c379a000000000000000000000000000000000000000000000000000000000815260040161034c90611abd565b60405180910390fd5b60028260405161036591906119fa565b908152602001604051809103902060010160019054906101000a900460ff16156103c4576040517f08c379a00000000000000000000000000000000000000000000000000000000081526004016103bb90611b29565b60405180910390fd5b600060038111156103d8576103d7611695565b5b8160038111156103eb576103ea611695565b5b0361042b576040517f08c379a000000000000000000000000000000000000000000000000000000000815260040161042290611b95565b60405180910390fd5b600060038360405161043d91906119fa565b908152602001604051809103902060003373ffffffffffffffffffffffffffffffffffffffff1673ffffffffffffffffffffffffffffffffffffffff16815260200190815260200160002060010154146104cc576040517f08c379a00000000000000000000000000000000000000000000000000000000081526004016104c390611c27565b60405180910390fd5b600160038111156104e0576104df611695565b5b8160038111156104f3576104f2611695565b5b03610535573460028360405161050991906119fa565b908152602001604051809103902060020160008282546105299190611c76565b92505081905550610604565b6002600381111561054957610548611695565b5b81600381111561055c5761055b611695565b5b0361059e573460028360405161057291906119fa565b908152602001604051809103902060040160008282546105929190611c76565b92505081905550610603565b6003808111156105b1576105b0611695565b5b8160038111156105c4576105c3611695565b5b0361060257346002836040516105da91906119fa565b908152602001604051809103902060030160008282546105fa9190611c76565b925050819055505b5b5b604051806060016040528082600381111561062257610621611695565b5b81526020013481526020016000151581525060038360405161064491906119fa565b908152602001604051809103902060003373ffffffffffffffffffffffffffffffffffffffff1673ffffffffffffffffffffffffffffffffffffffff16815260200190815260200160002060008201518160000160006101000a81548160ff021916908360038111156106ba576106b9611695565b5b02179055506020820151816001015560408201518160020160006101000a81548160ff0219169083151502179055509050503373ffffffffffffffffffffffffffffffffffffffff167f5149a01cd95673ec4aad2c9108486a7bf6e0394a2c0b7af3f3760be2d0c0d2eb83833460405161073693929190611caa565b60405180910390a25050565b60008054906101000a900473ffffffffffffffffffffffffffffffffffffffff1673ffffffffffffffffffffffffffffffffffffffff163373ffffffffffffffffffffffffffffffffffffffff1614806107e95750600160009054906101000a900473ffffffffffffffffffffffffffffffffffffffff1673ffffffffffffffffffffffffffffffffffffffff163373ffffffffffffffffffffffffffffffffffffffff16145b610828576040517f08c379a000000000000000000000000000000000000000000000000000000000815260040161081f90611d5a565b60405180910390fd5b600060028260405161083a91906119fa565b9081526020016040518091039020600001805461085690611a40565b905014610898576040517f08c379a000000000000000000000000000000000000000000000000000000000815260040161088f90611dc6565b60405180910390fd5b6040518060c00160405280828152602001600060038111156108bd576108bc611695565b5b8152602001600015158152602001600081526020016000815260200160008152506002826040516108ee91906119fa565b908152602001604051809103902060008201518160000190816109119190611f92565b5060208201518160010160006101000a81548160ff0219169083600381111561093d5761093c611695565b5b021790555060408201518160010160016101000a81548160ff021916908315150217905550606082015181600201556080820151816003015560a082015181600401559050507fb06e0f813991141eb451f1fa6a12020f5aee982bc340052f520ee94ebc7deca6816040516109b29190612064565b60405180910390a150565b600160009054906101000a900473ffffffffffffffffffffffffffffffffffffffff1673ffffffffffffffffffffffffffffffffffffffff163373ffffffffffffffffffffffffffffffffffffffff1614610a4d576040517f08c379a0000000000000000000000000000000000000000000000000000000008152600401610a44906120d2565b60405180910390fd5b6000600283604051610a5f91906119fa565b90815260200160405180910390206000018054610a7b90611a40565b905011610abd576040517f08c379a0000000000000000000000000000000000000000000000000000000008152600401610ab490611abd565b60405180910390fd5b600282604051610acd91906119fa565b908152602001604051809103902060010160019054906101000a900460ff1615610b2c576040517f08c379a0000000000000000000000000000000000000000000000000000000008152600401610b2390611b29565b60405180910390fd5b60006003811115610b4057610b3f611695565b5b816003811115610b5357610b52611695565b5b03610b93576040517f08c379a0000000000000000000000000000000000000000000000000000000008152600401610b8a9061213e565b60405180910390fd5b80600283604051610ba491906119fa565b908152602001604051809103902060010160006101000a81548160ff02191690836003811115610bd757610bd6611695565b5b02179055506001600283604051610bee91906119fa565b908152602001604051809103902060010160016101000a81548160ff0219169083151502179055507f9dc5f3aa979166e3973169ba85cc4aff965cdd42156ea7225eb4b13cf11dd14c8282604051610c4792919061215e565b60405180910390a15050565b600160009054906101000a900473ffffffffffffffffffffffffffffffffffffffff1681565b60008054906101000a900473ffffffffffffffffffffffffffffffffffffffff1681565b6060600080600080600080600288604051610cb891906119fa565b90815260200160405180910390206040518060c0016040529081600082018054610ce190611a40565b80601f0160208091040260200160405190810160405280929190818152602001828054610d0d90611a40565b8015610d5a5780601f10610d2f57610100808354040283529160200191610d5a565b820191906000526020600020905b815481529060010190602001808311610d3d57829003601f168201915b505050505081526020016001820160009054906101000a900460ff166003811115610d8857610d87611695565b5b6003811115610d9a57610d99611695565b5b81526020016001820160019054906101000a900460ff1615151515815260200160028201548152602001600382015481526020016004820154815250509050806000015181602001518260400151836060015184608001518560a001519650965096509650965096505091939550919395565b600281805160208101820180518482526020830160208501208183528095505050505050600091509050806000018054610e4690611a40565b80601f0160208091040260200160405190810160405280929190818152602001828054610e7290611a40565b8015610ebf5780601f10610e9457610100808354040283529160200191610ebf565b820191906000526020600020905b815481529060010190602001808311610ea257829003601f168201915b5050505050908060010160009054906101000a900460ff16908060010160019054906101000a900460ff16908060020154908060030154908060040154905086565b600281604051610f1191906119fa565b908152602001604051809103902060010160019054906101000a900460ff16610f6f576040517f08c379a0000000000000000000000000000000000000000000000000000000008152600401610f66906121da565b60405180910390fd5b6000600382604051610f8191906119fa565b908152602001604051809103902060003373ffffffffffffffffffffffffffffffffffffffff1673ffffffffffffffffffffffffffffffffffffffff16815260200190815260200160002090506000816001015411611015576040517f08c379a000000000000000000000000000000000000000000000000000000000815260040161100c90612246565b60405180910390fd5b8060020160009054906101000a900460ff1615611067576040517f08c379a000000000000000000000000000000000000000000000000000000000815260040161105e906122b2565b60405180910390fd5b60028260405161107791906119fa565b908152602001604051809103902060010160009054906101000a900460ff1660038111156110a8576110a7611695565b5b8160000160009054906101000a900460ff1660038111156110cc576110cb611695565b5b1461110c576040517f08c379a00000000000000000000000000000000000000000000000000000000081526004016111039061231e565b60405180910390fd5b60018160020160006101000a81548160ff021916908315150217905550600060028360405161113b91906119fa565b90815260200160405180910390206004015460028460405161115d91906119fa565b90815260200160405180910390206003015460028560405161117f91906119fa565b90815260200160405180910390206002015461119b9190611c76565b6111a59190611c76565b90506000600160038111156111bd576111bc611695565b5b6002856040516111cd91906119fa565b908152602001604051809103902060010160009054906101000a900460ff1660038111156111fe576111fd611695565b5b0361122c5760028460405161121391906119fa565b908152602001604051809103902060020154905061132f565b600260038111156112405761123f611695565b5b60028560405161125091906119fa565b908152602001604051809103902060010160009054906101000a900460ff16600381111561128157611280611695565b5b036112af5760028460405161129691906119fa565b908152602001604051809103902060040154905061132e565b6003808111156112c2576112c1611695565b5b6002856040516112d291906119fa565b908152602001604051809103902060010160009054906101000a900460ff16600381111561130357611302611695565b5b0361132d5760028460405161131891906119fa565b90815260200160405180910390206003015490505b5b5b600081838560010154611342919061233e565b61134c91906123af565b90506000606460028361135f919061233e565b61136991906123af565b90506000818361137991906123e0565b905060003373ffffffffffffffffffffffffffffffffffffffff16826040516113a190612445565b60006040518083038185875af1925050503d80600081146113de576040519150601f19603f3d011682016040523d82523d6000602084013e6113e3565b606091505b5050905080611427576040517f08c379a000000000000000000000000000000000000000000000000000000000815260040161141e906124a6565b60405180910390fd5b3373ffffffffffffffffffffffffffffffffffffffff167f5a16c73732c8164a175898e6e07e19bea13bd7be233999160e8256423dfdc978898460405161146f9291906124c6565b60405180910390a25050505050505050565b6000604051905090565b600080fd5b600080fd5b600080fd5b600080fd5b6000601f19601f8301169050919050565b7f4e487b7100000000000000000000000000000000000000000000000000000000600052604160045260246000fd5b6114e88261149f565b810181811067ffffffffffffffff82111715611507576115066114b0565b5b80604052505050565b600061151a611481565b905061152682826114df565b919050565b600067ffffffffffffffff821115611546576115456114b0565b5b61154f8261149f565b9050602081019050919050565b82818337600083830152505050565b600061157e6115798461152b565b611510565b90508281526020810184848401111561159a5761159961149a565b5b6115a584828561155c565b509392505050565b600082601f8301126115c2576115c1611495565b5b81356115d284826020860161156b565b91505092915050565b600073ffffffffffffffffffffffffffffffffffffffff82169050919050565b6000611606826115db565b9050919050565b611616816115fb565b811461162157600080fd5b50565b6000813590506116338161160d565b92915050565b600080604083850312156116505761164f61148b565b5b600083013567ffffffffffffffff81111561166e5761166d611490565b5b61167a858286016115ad565b925050602061168b85828601611624565b9150509250929050565b7f4e487b7100000000000000000000000000000000000000000000000000000000600052602160045260246000fd5b600481106116d5576116d4611695565b5b50565b60008190506116e6826116c4565b919050565b60006116f6826116d8565b9050919050565b611706816116eb565b82525050565b6000819050919050565b61171f8161170c565b82525050565b60008115159050919050565b61173a81611725565b82525050565b600060608201905061175560008301866116fd565b6117626020830185611716565b61176f6040830184611731565b949350505050565b6004811061178457600080fd5b50565b60008135905061179681611777565b92915050565b600080604083850312156117b3576117b261148b565b5b600083013567ffffffffffffffff8111156117d1576117d0611490565b5b6117dd858286016115ad565b92505060206117ee85828601611787565b9150509250929050565b60006020828403121561180e5761180d61148b565b5b600082013567ffffffffffffffff81111561182c5761182b611490565b5b611838848285016115ad565b91505092915050565b61184a816115fb565b82525050565b60006020820190506118656000830184611841565b92915050565b600081519050919050565b600082825260208201905092915050565b60005b838110156118a557808201518184015260208101905061188a565b60008484015250505050565b60006118bc8261186b565b6118c68185611876565b93506118d6818560208601611887565b6118df8161149f565b840191505092915050565b600060c082019050818103600083015261190481896118b1565b905061191360208301886116fd565b6119206040830187611731565b61192d6060830186611716565b61193a6080830185611716565b61194760a0830184611716565b979650505050505050565b7f5374616b65206d7573742062652067726561746572207468616e203000000000600082015250565b6000611988601c83611876565b915061199382611952565b602082019050919050565b600060208201905081810360008301526119b78161197b565b9050919050565b600081905092915050565b60006119d48261186b565b6119de81856119be565b93506119ee818560208601611887565b80840191505092915050565b6000611a0682846119c9565b915081905092915050565b7f4e487b7100000000000000000000000000000000000000000000000000000000600052602260045260246000fd5b60006002820490506001821680611a5857607f821691505b602082108103611a6b57611a6a611a11565b5b50919050565b7f4d61726b657420646f6573206e6f742065786973740000000000000000000000600082015250565b6000611aa7601583611876565b9150611ab282611a71565b602082019050919050565b60006020820190508181036000830152611ad681611a9a565b9050919050565b7f4d61726b657420616c7265616479207265736f6c766564000000000000000000600082015250565b6000611b13601783611876565b9150611b1e82611add565b602082019050919050565b60006020820190508181036000830152611b4281611b06565b9050919050565b7f496e76616c69642073656c656374696f6e000000000000000000000000000000600082015250565b6000611b7f601183611876565b9150611b8a82611b49565b602082019050919050565b60006020820190508181036000830152611bae81611b72565b9050919050565b7f416c726561647920706c61636564206120626574206f6e2074686973206d617260008201527f6b65740000000000000000000000000000000000000000000000000000000000602082015250565b6000611c11602383611876565b9150611c1c82611bb5565b604082019050919050565b60006020820190508181036000830152611c4081611c04565b9050919050565b7f4e487b7100000000000000000000000000000000000000000000000000000000600052601160045260246000fd5b6000611c818261170c565b9150611c8c8361170c565b9250828201905080821115611ca457611ca3611c47565b5b92915050565b60006060820190508181036000830152611cc481866118b1565b9050611cd360208301856116fd565b611ce06040830184611716565b949350505050565b7f4f6e6c79206f776e6572206f72206f7261636c652063616e2063616c6c20746860008201527f6973000000000000000000000000000000000000000000000000000000000000602082015250565b6000611d44602283611876565b9150611d4f82611ce8565b604082019050919050565b60006020820190508181036000830152611d7381611d37565b9050919050565b7f4d61726b657420616c7265616479206578697374730000000000000000000000600082015250565b6000611db0601583611876565b9150611dbb82611d7a565b602082019050919050565b60006020820190508181036000830152611ddf81611da3565b9050919050565b60008190508160005260206000209050919050565b60006020601f8301049050919050565b600082821b905092915050565b600060088302611e487fffffffffffffffffffffffffffffffffffffffffffffffffffffffffffffffff82611e0b565b611e528683611e0b565b95508019841693508086168417925050509392505050565b6000819050919050565b6000611e8f611e8a611e858461170c565b611e6a565b61170c565b9050919050565b6000819050919050565b611ea983611e74565b611ebd611eb582611e96565b848454611e18565b825550505050565b600090565b611ed2611ec5565b611edd818484611ea0565b505050565b5b81811015611f0157611ef6600082611eca565b600181019050611ee3565b5050565b601f821115611f4657611f1781611de6565b611f2084611dfb565b81016020851015611f2f578190505b611f43611f3b85611dfb565b830182611ee2565b50505b505050565b600082821c905092915050565b6000611f6960001984600802611f4b565b1980831691505092915050565b6000611f828383611f58565b9150826002028217905092915050565b611f9b8261186b565b67ffffffffffffffff811115611fb457611fb36114b0565b5b611fbe8254611a40565b611fc9828285611f05565b600060209050601f831160018114611ffc5760008415611fea578287015190505b611ff48582611f76565b86555061205c565b601f19841661200a86611de6565b60005b828110156120325784890151825560018201915060208501945060208101905061200d565b8683101561204f578489015161204b601f891682611f58565b8355505b6001600288020188555050505b505050505050565b6000602082019050818103600083015261207e81846118b1565b905092915050565b7f4f6e6c79206f7261636c65206e6f64652063616e2063616c6c20746869730000600082015250565b60006120bc601e83611876565b91506120c782612086565b602082019050919050565b600060208201905081810360008301526120eb816120af565b9050919050565b7f496e76616c69642077696e6e696e67206f7574636f6d65000000000000000000600082015250565b6000612128601783611876565b9150612133826120f2565b602082019050919050565b600060208201905081810360008301526121578161211b565b9050919050565b6000604082019050818103600083015261217881856118b1565b905061218760208301846116fd565b9392505050565b7f4d61726b6574206e6f7420796574207265736f6c766564000000000000000000600082015250565b60006121c4601783611876565b91506121cf8261218e565b602082019050919050565b600060208201905081810360008301526121f3816121b7565b9050919050565b7f4e6f2062657420706c6163656400000000000000000000000000000000000000600082015250565b6000612230600d83611876565b915061223b826121fa565b602082019050919050565b6000602082019050818103600083015261225f81612223565b9050919050565b7f57696e6e696e677320616c726561647920636c61696d65640000000000000000600082015250565b600061229c601883611876565b91506122a782612266565b602082019050919050565b600060208201905081810360008301526122cb8161228f565b9050919050565b7f426574206c6f7374000000000000000000000000000000000000000000000000600082015250565b6000612308600883611876565b9150612313826122d2565b602082019050919050565b60006020820190508181036000830152612337816122fb565b9050919050565b60006123498261170c565b91506123548361170c565b92508282026123628161170c565b9150828204841483151761237957612378611c47565b5b5092915050565b7f4e487b7100000000000000000000000000000000000000000000000000000000600052601260045260246000fd5b60006123ba8261170c565b91506123c58361170c565b9250826123d5576123d4612380565b5b828204905092915050565b60006123eb8261170c565b91506123f68361170c565b925082820390508181111561240e5761240d611c47565b5b92915050565b600081905092915050565b50565b600061242f600083612414565b915061243a8261241f565b600082019050919050565b600061245082612422565b9150819050919050565b7f4f4b42207472616e73666572206661696c656400000000000000000000000000600082015250565b6000612490601383611876565b915061249b8261245a565b602082019050919050565b600060208201905081810360008301526124bf81612483565b9050919050565b600060408201905081810360008301526124e081856118b1565b90506124ef6020830184611716565b939250505056fea264697066735822122092dd3f8b831a569da1f2bffa900084891c176f8f85678898f614008c201dfeb364736f6c63430008130033",
  "linkReferences": {},
  "deployedLinkReferences": {},
  "immutableReferences": {},
  "inputSourceName": "project/contracts/PredictionMarket.sol",
  "buildInfoId": "solc-0_8_19-72c38d13f8688519a705f1d49a8dad43814a8ede"
}