{
  "_format": "hh3-artifact-1",
  "contractName": "PredictionMarket",
  "sourceName": "contracts/PredictionMarket.sol",
  "abi": [
    {
      "inputs": [
        {
          "internalType": "address",
          "name": "_oracleNode",
          "type": "address"
        },
        {
          "internalType": "address",
          "name": "_usdt0Token",
          "type": "address"
        }
      ],
      "stateMutability": "nonpayable",
      "type": "constructor"
    },
    {
      "anonymous": false,
      "inputs": [
        {
          "indexed": true,
          "internalType": "address",
          "name": "user",
          "type": "address"
        },
        {
          "indexed": false,
          "internalType": "string",
          "name": "fixtureId",
          "type": "string"
        },
        {
          "indexed": false,
          "internalType": "enum PredictionMarket.MatchOutcome",
          "name": "selection",
          "type": "uint8"
        },
        {
          "indexed": false,
          "internalType": "uint256",
          "name": "amount",
          "type": "uint256"
        }
      ],
      "name": "BetPlaced",
      "type": "event"
    },
    {
      "anonymous": false,
      "inputs": [
        {
          "indexed": false,
          "internalType": "string",
          "name": "fixtureId",
          "type": "string"
        }
      ],
      "name": "MarketCreated",
      "type": "event"
    },
    {
      "anonymous": false,
      "inputs": [
        {
          "indexed": false,
          "internalType": "string",
          "name": "fixtureId",
          "type": "string"
        },
        {
          "indexed": false,
          "internalType": "enum PredictionMarket.MatchOutcome",
          "name": "winningOutcome",
          "type": "uint8"
        }
      ],
      "name": "MarketResolved",
      "type": "event"
    },
    {
      "anonymous": false,
      "inputs": [
        {
          "indexed": true,
          "internalType": "address",
          "name": "user",
          "type": "address"
        },
        {
          "indexed": false,
          "internalType": "string",
          "name": "fixtureId",
          "type": "string"
        },
        {
          "indexed": false,
          "internalType": "uint256",
          "name": "amount",
          "type": "uint256"
        }
      ],
      "name": "WinningsClaimed",
      "type": "event"
    },
    {
      "inputs": [
        {
          "internalType": "string",
          "name": "",
          "type": "string"
        },
        {
          "internalType": "address",
          "name": "",
          "type": "address"
        }
      ],
      "name": "bets",
      "outputs": [
        {
          "internalType": "enum PredictionMarket.MatchOutcome",
          "name": "selection",
          "type": "uint8"
        },
        {
          "internalType": "uint256",
          "name": "amount",
          "type": "uint256"
        },
        {
          "internalType": "bool",
          "name": "claimed",
          "type": "bool"
        }
      ],
      "stateMutability": "view",
      "type": "function"
    },
    {
      "inputs": [
        {
          "internalType": "string",
          "name": "_fixtureId",
          "type": "string"
        }
      ],
      "name": "claimWinnings",
      "outputs": [],
      "stateMutability": "nonpayable",
      "type": "function"
    },
    {
      "inputs": [
        {
          "internalType": "string",
          "name": "_fixtureId",
          "type": "string"
        }
      ],
      "name": "createMarket",
      "outputs": [],
      "stateMutability": "nonpayable",
      "type": "function"
    },
    {
      "inputs": [
        {
          "internalType": "string",
          "name": "",
          "type": "string"
        }
      ],
      "name": "markets",
      "outputs": [
        {
          "internalType": "string",
          "name": "fixtureId",
          "type": "string"
        },
        {
          "internalType": "enum PredictionMarket.MatchOutcome",
          "name": "outcome",
          "type": "uint8"
        },
        {
          "internalType": "bool",
          "name": "isResolved",
          "type": "bool"
        },
        {
          "internalType": "uint256",
          "name": "totalHomePool",
          "type": "uint256"
        },
        {
          "internalType": "uint256",
          "name": "totalDrawPool",
          "type": "uint256"
        },
        {
          "internalType": "uint256",
          "name": "totalAwayPool",
          "type": "uint256"
        }
      ],
      "stateMutability": "view",
      "type": "function"
    },
    {
      "inputs": [],
      "name": "oracleNode",
      "outputs": [
        {
          "internalType": "address",
          "name": "",
          "type": "address"
        }
      ],
      "stateMutability": "view",
      "type": "function"
    },
    {
      "inputs": [],
      "name": "owner",
      "outputs": [
        {
          "internalType": "address",
          "name": "",
          "type": "address"
        }
      ],
      "stateMutability": "view",
      "type": "function"
    },
    {
      "inputs": [
        {
          "internalType": "string",
          "name": "_fixtureId",
          "type": "string"
        },
        {
          "internalType": "enum PredictionMarket.MatchOutcome",
          "name": "_selection",
          "type": "uint8"
        },
        {
          "internalType": "uint256",
          "name": "_amount",
          "type": "uint256"
        }
      ],
      "name": "placeBet",
      "outputs": [],
      "stateMutability": "nonpayable",
      "type": "function"
    },
    {
      "inputs": [
        {
          "internalType": "string",
          "name": "_fixtureId",
          "type": "string"
        },
        {
          "internalType": "enum PredictionMarket.MatchOutcome",
          "name": "_winningOutcome",
          "type": "uint8"
        }
      ],
      "name": "resolveMarket",
      "outputs": [],
      "stateMutability": "nonpayable",
      "type": "function"
    },
    {
      "inputs": [],
      "name": "usdt0Token",
      "outputs": [
        {
          "internalType": "contract IERC20",
          "name": "",
          "type": "address"
        }
      ],
      "stateMutability": "view",
      "type": "function"
    }
  ],
  "bytecode": "0x60806040523480156200001157600080fd5b50604051620027463803806200274683398181016040528101906200003791906200016b565b336000806101000a81548173ffffffffffffffffffffffffffffffffffffffff021916908373ffffffffffffffffffffffffffffffffffffffff16021790555081600160006101000a81548173ffffffffffffffffffffffffffffffffffffffff021916908373ffffffffffffffffffffffffffffffffffffffff16021790555080600260006101000a81548173ffffffffffffffffffffffffffffffffffffffff021916908373ffffffffffffffffffffffffffffffffffffffff1602179055505050620001b2565b600080fd5b600073ffffffffffffffffffffffffffffffffffffffff82169050919050565b6000620001338262000106565b9050919050565b620001458162000126565b81146200015157600080fd5b50565b60008151905062000165816200013a565b92915050565b6000806040838503121562000185576200018462000101565b5b6000620001958582860162000154565b9250506020620001a88582860162000154565b9150509250929050565b61258480620001c26000396000f3fe608060405234801561001057600080fd5b50600436106100935760003560e01c806380cc0dda1161006657806380cc0dda1461011e57806381669a891461013c5780638da5cb5b1461015a578063efbda66114610178578063fdbcf125146101ad57610093565b80631f6be04914610098578063288b0eef146100ca57806354888f55146100e65780635aa8ff1514610102575b600080fd5b6100b260048036038101906100ad9190611539565b6101c9565b6040516100c193929190611640565b60405180910390f35b6100e460048036038101906100df91906116c8565b610230565b005b61010060048036038101906100fb9190611737565b6107b2565b005b61011c60048036038101906101179190611780565b6109d5565b005b610126610c6b565b60405161013391906117eb565b60405180910390f35b610144610c91565b6040516101519190611865565b60405180910390f35b610162610cb7565b60405161016f91906117eb565b60405180910390f35b610192600480360381019061018d9190611737565b610cdb565b6040516101a4969594939291906118ff565b60405180910390f35b6101c760048036038101906101c29190611737565b610dcf565b005b600482805160208101820180518482526020830160208501208183528095505050505050602052806000526040600020600091509150508060000160009054906101000a900460ff16908060010154908060020160009054906101000a900460ff16905083565b60008111610273576040517f08c379a000000000000000000000000000000000000000000000000000000000815260040161026a906119b3565b60405180910390fd5b60006003846040516102859190611a0f565b908152602001604051809103902060000180546102a190611a55565b9050116102e3576040517f08c379a00000000000000000000000000000000000000000000000000000000081526004016102da90611ad2565b60405180910390fd5b6003836040516102f39190611a0f565b908152602001604051809103902060010160019054906101000a900460ff1615610352576040517f08c379a000000000000000000000000000000000000000000000000000000000815260040161034990611b3e565b60405180910390fd5b6000600381111561036657610365611595565b5b82600381111561037957610378611595565b5b036103b9576040517f08c379a00000000000000000000000000000000000000000000000000000000081526004016103b090611baa565b60405180910390fd5b60006004846040516103cb9190611a0f565b908152602001604051809103902060003373ffffffffffffffffffffffffffffffffffffffff1673ffffffffffffffffffffffffffffffffffffffff168152602001908152602001600020600101541461045a576040517f08c379a000000000000000000000000000000000000000000000000000000000815260040161045190611c3c565b60405180910390fd5b600260009054906101000a900473ffffffffffffffffffffffffffffffffffffffff1673ffffffffffffffffffffffffffffffffffffffff166323b872dd3330846040518463ffffffff1660e01b81526004016104b993929190611c5c565b6020604051808303816000875af11580156104d8573d6000803e3d6000fd5b505050506040513d601f19601f820116820180604052508101906104fc9190611cbf565b61053b576040517f08c379a000000000000000000000000000000000000000000000000000000000815260040161053290611d38565b60405180910390fd5b6001600381111561054f5761054e611595565b5b82600381111561056257610561611595565b5b036105a457806003846040516105789190611a0f565b908152602001604051809103902060020160008282546105989190611d87565b92505081905550610673565b600260038111156105b8576105b7611595565b5b8260038111156105cb576105ca611595565b5b0361060d57806003846040516105e19190611a0f565b908152602001604051809103902060040160008282546106019190611d87565b92505081905550610672565b6003808111156106205761061f611595565b5b82600381111561063357610632611595565b5b0361067157806003846040516106499190611a0f565b908152602001604051809103902060030160008282546106699190611d87565b925050819055505b5b5b604051806060016040528083600381111561069157610690611595565b5b8152602001828152602001600015158152506004846040516106b39190611a0f565b908152602001604051809103902060003373ffffffffffffffffffffffffffffffffffffffff1673ffffffffffffffffffffffffffffffffffffffff16815260200190815260200160002060008201518160000160006101000a81548160ff0219169083600381111561072957610728611595565b5b02179055506020820151816001015560408201518160020160006101000a81548160ff0219169083151502179055509050503373ffffffffffffffffffffffffffffffffffffffff167f5149a01cd95673ec4aad2c9108486a7bf6e0394a2c0b7af3f3760be2d0c0d2eb8484846040516107a593929190611dbb565b60405180910390a2505050565b60008054906101000a900473ffffffffffffffffffffffffffffffffffffffff1673ffffffffffffffffffffffffffffffffffffffff163373ffffffffffffffffffffffffffffffffffffffff1614610840576040517f08c379a000000000000000000000000000000000000000000000000000000000815260040161083790611e45565b60405180910390fd5b60006003826040516108529190611a0f565b9081526020016040518091039020600001805461086e90611a55565b9050146108b0576040517f08c379a00000000000000000000000000000000000000000000000000000000081526004016108a790611eb1565b60405180910390fd5b6040518060c00160405280828152602001600060038111156108d5576108d4611595565b5b8152602001600015158152602001600081526020016000815260200160008152506003826040516109069190611a0f565b908152602001604051809103902060008201518160000190816109299190612073565b5060208201518160010160006101000a81548160ff0219169083600381111561095557610954611595565b5b021790555060408201518160010160016101000a81548160ff021916908315150217905550606082015181600201556080820151816003015560a082015181600401559050507fb06e0f813991141eb451f1fa6a12020f5aee982bc340052f520ee94ebc7deca6816040516109ca9190612145565b60405180910390a150565b600160009054906101000a900473ffffffffffffffffffffffffffffffffffffffff1673ffffffffffffffffffffffffffffffffffffffff163373ffffffffffffffffffffffffffffffffffffffff1614610a65576040517f08c379a0000000000000000000000000000000000000000000000000000000008152600401610a5c906121b3565b60405180910390fd5b6000600383604051610a779190611a0f565b90815260200160405180910390206000018054610a9390611a55565b905011610ad5576040517f08c379a0000000000000000000000000000000000000000000000000000000008152600401610acc90611ad2565b60405180910390fd5b600382604051610ae59190611a0f565b908152602001604051809103902060010160019054906101000a900460ff1615610b44576040517f08c379a0000000000000000000000000000000000000000000000000000000008152600401610b3b90611b3e565b60405180910390fd5b60006003811115610b5857610b57611595565b5b816003811115610b6b57610b6a611595565b5b03610bab576040517f08c379a0000000000000000000000000000000000000000000000000000000008152600401610ba29061221f565b60405180910390fd5b80600383604051610bbc9190611a0f565b908152602001604051809103902060010160006101000a81548160ff02191690836003811115610bef57610bee611595565b5b02179055506001600383604051610c069190611a0f565b908152602001604051809103902060010160016101000a81548160ff0219169083151502179055507f9dc5f3aa979166e3973169ba85cc4aff965cdd42156ea7225eb4b13cf11dd14c8282604051610c5f92919061223f565b60405180910390a15050565b600160009054906101000a900473ffffffffffffffffffffffffffffffffffffffff1681565b600260009054906101000a900473ffffffffffffffffffffffffffffffffffffffff1681565b60008054906101000a900473ffffffffffffffffffffffffffffffffffffffff1681565b600381805160208101820180518482526020830160208501208183528095505050505050600091509050806000018054610d1490611a55565b80601f0160208091040260200160405190810160405280929190818152602001828054610d4090611a55565b8015610d8d5780601f10610d6257610100808354040283529160200191610d8d565b820191906000526020600020905b815481529060010190602001808311610d7057829003601f168201915b5050505050908060010160009054906101000a900460ff16908060010160019054906101000a900460ff16908060020154908060030154908060040154905086565b600381604051610ddf9190611a0f565b908152602001604051809103902060010160019054906101000a900460ff16610e3d576040517f08c379a0000000000000000000000000000000000000000000000000000000008152600401610e34906122bb565b60405180910390fd5b6000600482604051610e4f9190611a0f565b908152602001604051809103902060003373ffffffffffffffffffffffffffffffffffffffff1673ffffffffffffffffffffffffffffffffffffffff16815260200190815260200160002090506000816001015411610ee3576040517f08c379a0000000000000000000000000000000000000000000000000000000008152600401610eda90612327565b60405180910390fd5b8060020160009054906101000a900460ff1615610f35576040517f08c379a0000000000000000000000000000000000000000000000000000000008152600401610f2c90612393565b60405180910390fd5b600382604051610f459190611a0f565b908152602001604051809103902060010160009054906101000a900460ff166003811115610f7657610f75611595565b5b8160000160009054906101000a900460ff166003811115610f9a57610f99611595565b5b14610fda576040517f08c379a0000000000000000000000000000000000000000000000000000000008152600401610fd1906123ff565b60405180910390fd5b60018160020160006101000a81548160ff02191690831515021790555060006003836040516110099190611a0f565b90815260200160405180910390206004015460038460405161102b9190611a0f565b90815260200160405180910390206003015460038560405161104d9190611a0f565b9081526020016040518091039020600201546110699190611d87565b6110739190611d87565b905060006001600381111561108b5761108a611595565b5b60038560405161109b9190611a0f565b908152602001604051809103902060010160009054906101000a900460ff1660038111156110cc576110cb611595565b5b036110fa576003846040516110e19190611a0f565b90815260200160405180910390206002015490506111fd565b6002600381111561110e5761110d611595565b5b60038560405161111e9190611a0f565b908152602001604051809103902060010160009054906101000a900460ff16600381111561114f5761114e611595565b5b0361117d576003846040516111649190611a0f565b90815260200160405180910390206004015490506111fc565b6003808111156111905761118f611595565b5b6003856040516111a09190611a0f565b908152602001604051809103902060010160009054906101000a900460ff1660038111156111d1576111d0611595565b5b036111fb576003846040516111e69190611a0f565b90815260200160405180910390206003015490505b5b5b600081838560010154611210919061241f565b61121a9190612490565b90506000606460028361122d919061241f565b6112379190612490565b90506000818361124791906124c1565b9050600260009054906101000a900473ffffffffffffffffffffffffffffffffffffffff1673ffffffffffffffffffffffffffffffffffffffff1663a9059cbb33836040518363ffffffff1660e01b81526004016112a69291906124f5565b6020604051808303816000875af11580156112c5573d6000803e3d6000fd5b505050506040513d601f19601f820116820180604052508101906112e99190611cbf565b611328576040517f08c379a000000000000000000000000000000000000000000000000000000000815260040161131f90611d38565b60405180910390fd5b3373ffffffffffffffffffffffffffffffffffffffff167f5a16c73732c8164a175898e6e07e19bea13bd7be233999160e8256423dfdc978888360405161137092919061251e565b60405180910390a250505050505050565b6000604051905090565b600080fd5b600080fd5b600080fd5b600080fd5b6000601f19601f8301169050919050565b7f4e487b7100000000000000000000000000000000000000000000000000000000600052604160045260246000fd5b6113e88261139f565b810181811067ffffffffffffffff82111715611407576114066113b0565b5b80604052505050565b600061141a611381565b905061142682826113df565b919050565b600067ffffffffffffffff821115611446576114456113b0565b5b61144f8261139f565b9050602081019050919050565b82818337600083830152505050565b600061147e6114798461142b565b611410565b90508281526020810184848401111561149a5761149961139a565b5b6114a584828561145c565b509392505050565b600082601f8301126114c2576114c1611395565b5b81356114d284826020860161146b565b91505092915050565b600073ffffffffffffffffffffffffffffffffffffffff82169050919050565b6000611506826114db565b9050919050565b611516816114fb565b811461152157600080fd5b50565b6000813590506115338161150d565b92915050565b600080604083850312156115505761154f61138b565b5b600083013567ffffffffffffffff81111561156e5761156d611390565b5b61157a858286016114ad565b925050602061158b85828601611524565b9150509250929050565b7f4e487b7100000000000000000000000000000000000000000000000000000000600052602160045260246000fd5b600481106115d5576115d4611595565b5b50565b60008190506115e6826115c4565b919050565b60006115f6826115d8565b9050919050565b611606816115eb565b82525050565b6000819050919050565b61161f8161160c565b82525050565b60008115159050919050565b61163a81611625565b82525050565b600060608201905061165560008301866115fd565b6116626020830185611616565b61166f6040830184611631565b949350505050565b6004811061168457600080fd5b50565b60008135905061169681611677565b92915050565b6116a58161160c565b81146116b057600080fd5b50565b6000813590506116c28161169c565b92915050565b6000806000606084860312156116e1576116e061138b565b5b600084013567ffffffffffffffff8111156116ff576116fe611390565b5b61170b868287016114ad565b935050602061171c86828701611687565b925050604061172d868287016116b3565b9150509250925092565b60006020828403121561174d5761174c61138b565b5b600082013567ffffffffffffffff81111561176b5761176a611390565b5b611777848285016114ad565b91505092915050565b600080604083850312156117975761179661138b565b5b600083013567ffffffffffffffff8111156117b5576117b4611390565b5b6117c1858286016114ad565b92505060206117d285828601611687565b9150509250929050565b6117e5816114fb565b82525050565b600060208201905061180060008301846117dc565b92915050565b6000819050919050565b600061182b611826611821846114db565b611806565b6114db565b9050919050565b600061183d82611810565b9050919050565b600061184f82611832565b9050919050565b61185f81611844565b82525050565b600060208201905061187a6000830184611856565b92915050565b600081519050919050565b600082825260208201905092915050565b60005b838110156118ba57808201518184015260208101905061189f565b60008484015250505050565b60006118d182611880565b6118db818561188b565b93506118eb81856020860161189c565b6118f48161139f565b840191505092915050565b600060c082019050818103600083015261191981896118c6565b905061192860208301886115fd565b6119356040830187611631565b6119426060830186611616565b61194f6080830185611616565b61195c60a0830184611616565b979650505050505050565b7f5374616b65206d7573742062652067726561746572207468616e203000000000600082015250565b600061199d601c8361188b565b91506119a882611967565b602082019050919050565b600060208201905081810360008301526119cc81611990565b9050919050565b600081905092915050565b60006119e982611880565b6119f381856119d3565b9350611a0381856020860161189c565b80840191505092915050565b6000611a1b82846119de565b915081905092915050565b7f4e487b7100000000000000000000000000000000000000000000000000000000600052602260045260246000fd5b60006002820490506001821680611a6d57607f821691505b602082108103611a8057611a7f611a26565b5b50919050565b7f4d61726b657420646f6573206e6f742065786973740000000000000000000000600082015250565b6000611abc60158361188b565b9150611ac782611a86565b602082019050919050565b60006020820190508181036000830152611aeb81611aaf565b9050919050565b7f4d61726b657420616c7265616479207265736f6c766564000000000000000000600082015250565b6000611b2860178361188b565b9150611b3382611af2565b602082019050919050565b60006020820190508181036000830152611b5781611b1b565b9050919050565b7f496e76616c69642073656c656374696f6e000000000000000000000000000000600082015250565b6000611b9460118361188b565b9150611b9f82611b5e565b602082019050919050565b60006020820190508181036000830152611bc381611b87565b9050919050565b7f416c726561647920706c61636564206120626574206f6e2074686973206d617260008201527f6b65740000000000000000000000000000000000000000000000000000000000602082015250565b6000611c2660238361188b565b9150611c3182611bca565b604082019050919050565b60006020820190508181036000830152611c5581611c19565b9050919050565b6000606082019050611c7160008301866117dc565b611c7e60208301856117dc565b611c8b6040830184611616565b949350505050565b611c9c81611625565b8114611ca757600080fd5b50565b600081519050611cb981611c93565b92915050565b600060208284031215611cd557611cd461138b565b5b6000611ce384828501611caa565b91505092915050565b7f5553445430207472616e73666572206661696c65640000000000000000000000600082015250565b6000611d2260158361188b565b9150611d2d82611cec565b602082019050919050565b60006020820190508181036000830152611d5181611d15565b9050919050565b7f4e487b7100000000000000000000000000000000000000000000000000000000600052601160045260246000fd5b6000611d928261160c565b9150611d9d8361160c565b9250828201905080821115611db557611db4611d58565b5b92915050565b60006060820190508181036000830152611dd581866118c6565b9050611de460208301856115fd565b611df16040830184611616565b949350505050565b7f4f6e6c79206f776e65722063616e2063616c6c20746869730000000000000000600082015250565b6000611e2f60188361188b565b9150611e3a82611df9565b602082019050919050565b60006020820190508181036000830152611e5e81611e22565b9050919050565b7f4d61726b657420616c7265616479206578697374730000000000000000000000600082015250565b6000611e9b60158361188b565b9150611ea682611e65565b602082019050919050565b60006020820190508181036000830152611eca81611e8e565b9050919050565b60008190508160005260206000209050919050565b60006020601f8301049050919050565b600082821b905092915050565b600060088302611f337fffffffffffffffffffffffffffffffffffffffffffffffffffffffffffffffff82611ef6565b611f3d8683611ef6565b95508019841693508086168417925050509392505050565b6000611f70611f6b611f668461160c565b611806565b61160c565b9050919050565b6000819050919050565b611f8a83611f55565b611f9e611f9682611f77565b848454611f03565b825550505050565b600090565b611fb3611fa6565b611fbe818484611f81565b505050565b5b81811015611fe257611fd7600082611fab565b600181019050611fc4565b5050565b601f82111561202757611ff881611ed1565b61200184611ee6565b81016020851015612010578190505b61202461201c85611ee6565b830182611fc3565b50505b505050565b600082821c905092915050565b600061204a6000198460080261202c565b1980831691505092915050565b60006120638383612039565b9150826002028217905092915050565b61207c82611880565b67ffffffffffffffff811115612095576120946113b0565b5b61209f8254611a55565b6120aa828285611fe6565b600060209050601f8311600181146120dd57600084156120cb578287015190505b6120d58582612057565b86555061213d565b601f1984166120eb86611ed1565b60005b82811015612113578489015182556001820191506020850194506020810190506120ee565b86831015612130578489015161212c601f891682612039565b8355505b6001600288020188555050505b505050505050565b6000602082019050818103600083015261215f81846118c6565b905092915050565b7f4f6e6c79206f7261636c65206e6f64652063616e2063616c6c20746869730000600082015250565b600061219d601e8361188b565b91506121a882612167565b602082019050919050565b600060208201905081810360008301526121cc81612190565b9050919050565b7f496e76616c69642077696e6e696e67206f7574636f6d65000000000000000000600082015250565b600061220960178361188b565b9150612214826121d3565b602082019050919050565b60006020820190508181036000830152612238816121fc565b9050919050565b6000604082019050818103600083015261225981856118c6565b905061226860208301846115fd565b9392505050565b7f4d61726b6574206e6f7420796574207265736f6c766564000000000000000000600082015250565b60006122a560178361188b565b91506122b08261226f565b602082019050919050565b600060208201905081810360008301526122d481612298565b9050919050565b7f4e6f2062657420706c6163656400000000000000000000000000000000000000600082015250565b6000612311600d8361188b565b915061231c826122db565b602082019050919050565b6000602082019050818103600083015261234081612304565b9050919050565b7f57696e6e696e677320616c726561647920636c61696d65640000000000000000600082015250565b600061237d60188361188b565b915061238882612347565b602082019050919050565b600060208201905081810360008301526123ac81612370565b9050919050565b7f426574206c6f7374000000000000000000000000000000000000000000000000600082015250565b60006123e960088361188b565b91506123f4826123b3565b602082019050919050565b60006020820190508181036000830152612418816123dc565b9050919050565b600061242a8261160c565b91506124358361160c565b92508282026124438161160c565b9150828204841483151761245a57612459611d58565b5b5092915050565b7f4e487b7100000000000000000000000000000000000000000000000000000000600052601260045260246000fd5b600061249b8261160c565b91506124a68361160c565b9250826124b6576124b5612461565b5b828204905092915050565b60006124cc8261160c565b91506124d78361160c565b92508282039050818111156124ef576124ee611d58565b5b92915050565b600060408201905061250a60008301856117dc565b6125176020830184611616565b9392505050565b6000604082019050818103600083015261253881856118c6565b90506125476020830184611616565b939250505056fea2646970667358221220f2195e969e29a7a5ef8304ad629a333489bf4d369f4f75c9e92ba5dd13859d8c64736f6c63430008130033",
  "linkReferences": {},
  "deployedLinkReferences": {},
  "immutableReferences": {},
  "inputSourceName": "project/contracts/PredictionMarket.sol",
  "buildInfoId": "solc-0_8_19-3d8e509e388f43dfe5735120445085a99786cf4d"
}